:100000000200B08054780179007A007B207D567C14
:1000100000120071E4F576F577E57724D7E576648C
:1000200080347F500280028002802BA876A977E975
:10003000C333F9E833F87420292401F987A0057740
:10004000E57770020576E57724D7E5766480347F1E
:100050005002800280D580BC2280AA898288838B4E
:1000600000EC4D6036E4E0F608A31DBDFFF31C80F4
:10007000F0B800118B00EC4D6021E7F609081DBDBA
:10008000FFF41C80F1898288838B00EC4D600CE4C6
:1000900093F608A31DBDFFF31C80F022E4F5D07594
:1000A000817878207A58F608DAFC12000302000002
:0300B00002009CAF
:1001000000FF00F700EF00E700DF00D700CF00C7D7
:1001100000BF00DF00DF00DF00DF00DF00DF00DF07
:1001200000DF00D300C700BB00AF00A30097008B27
:1001300000800080008000800080008000800080BF
:1001400000800080008000800080008000800080AF
:0601500000800000000029
:00000001FF
