:100000000200B6805A780179007A007B227D0B7C51
:1000100000120077792C8790752000E52024F65097
:10002000028002800280337422A920780029F98797
:10003000A0752100E521249C500280028002800EE0
:1000400080000521E521249C5002800280F20520D9
:10005000E52024F65002800280CD792C87A02280F2
:10006000A4898288838B00EC4D6036E4E0F608A317
:100070001DBDFFF31C80F0B800118B00EC4D60211A
:10008000E7F609081DBDFFF41C80F1898288838B87
:1000900000EC4D600CE493F608A31DBDFFF31C803B
:1000A000F022E4F5D075812D78207A0DF608DAFC7F
:0900B0001200030200000200A28C
:0B01000090F9A4B080999282F8FF00F3
:00000001FF
