:1000000002008AE5836003E49322A882E622E58366
:100010006004E4938003A882E6F822E5836004E4A8
:10002000938003A882E6F922E5836004E4938003C9
:10003000A882E6FA22E5836004E4938003A882E6BE
:10004000FB22E5836004E4938003A882E6FC22E5BA
:10005000836004E4938003A882E6FD22E5836004C4
:10006000E4938003A882E6FE22E5836004E49380A3
:1000700003A882E6FF22E4F5D075813078207A105B
:0D008000F608DAFC12019C02000002007676
:1001000048656C6C6F00576F726C642100280201A7
:1001100099E4F52AF52B8A2C8B2D8C2E8D2F8011AE
:1001200075802075A00375A002052BE52B700205D4
:100130002AE528B52A07E529B52B0280065002805A
:100140000280DDE4F52AF52B801FE52B252FF582B3
:10015000E52A352EF583120003F58075A00375A0FE
:1001600002052BE52B7002052AE52CB52A07E52DA3
:10017000B52B02801D500280197410C39529FD749F
:10018000009528FCECB52A06EDB52B02800450043E
:1001900080008004800080B22202011102022975D1
:1001A0002201752300752401752506E4F526F5273F
:1001B00075803875A00175A00075808075A00175E7
:1001C000A0008526288527297A007B05AC22AD234F
:1001D00012010E0527E527700205267580C575A05A
:1001E0000175A000E4F520F521E52124FAE520348D
:1001F000FF500280028002802DE5212525F582E551
:10020000203524F583120003F58075A00375A00244
:100210000521E52170020520E52124FAE52034FFBF
:0C0220005002800280D380882202019FDF
:00000001FF
